:100000000C942A000C9447000C9447000C94470071
:100010000C9447000C9447000C9447000C94470044
:100020000C9447000C9447000C94F8000C94470083
:100030000C9447000C9447000C9447000C94470024
:100040000C9447000C9447000C9447000C94470014
:100050000C94470011241FBECFE5D8E0DEBFCDBF12
:1000600010E0A0E6B0E0E4E9F4E002C005900D92F3
:10007000A039B107D9F710E0A0E9B0E001C01D92A6
:10008000A23AB107E1F70E9449000C9448020C948F
:1000900000000E94EA000E9438010E94F300809153
:1000A0009500823020F00E943501109295008091D9
:1000B00094008A3020F00E94F00010929400809109
:1000C000A0009091A100449730F00E94F10010929E
:1000D000A1001092A00080919E0090919F00843614
:1000E000910530F00E94220110929F0010929E0014
:1000F0000E94F200D4CFFC0123E0EE0FFF1F2A95EF
:10010000E1F76130710579F4E81BF90BE05AFF4F14
:10011000A281B3818C91068002C0660F771F0A947A
:10012000E2F7862B11C0E81BF90BE05AFF4FA281C2
:10013000B3812C9181E090E0068002C0880F991F66
:100140000A94E2F7809582238C93089590E0FC0155
:1001500033E0EE0FFF1F3A95E1F7E81BF90BE05A89
:10016000FF4FA481B5812C9130E0068002C0359507
:1001700027950A94E2F721703070C9010895FC01B7
:1001800043E0EE0FFF1F4A95E1F76130710579F406
:10019000E81BF90BE05AFF4FA081B1818C910680DA
:1001A00002C0660F771F0A94E2F7862B11C0E81B86
:1001B000F90BE05AFF4FA081B1812C9181E090E0D2
:1001C000068002C0880F991F0A94E2F78095822367
:1001D0008C9308958CE083BF8CE98CBF08950895BB
:1001E00008950895089589B7826089BF7894089525
:1001F0001F920F920FB60F9211248F939F938091AD
:1002000095008F5F80939500809194008F5F80931D
:1002100094008091A0009091A10001969093A1007C
:100220008093A00080919E0090919F0001969093F2
:100230009F0080939E009F918F910F900FBE0F9013
:100240001F90189580E00E947501813021F481E0B3
:1002500090E00E94070281E00E947501813021F444
:1002600080E090E00E94070208950E947F010895B7
:100270000E94D7010E943D010895E0917C00F09119
:100280007D00408121E030E0C9010090800002C083
:10029000880F991F0A94E2F7809548234083E091E4
:1002A0007E00F0917F00408184238083109299002A
:1002B00010929A00E0918100F0918200808100907C
:1002C000850002C0220F331F0A94E2F72095822393
:1002D0008083E0918300F091840080812823208333
:1002E00010929C0010929D00089590E0FC01EE0F8A
:1002F000FF1FE80FF91FE856FF4F81810895E09135
:100300007E00F0917F008081282F30E000908000F7
:1003100002C0359527950A94E2F7809198008217DC
:1003200059F480919A00853018F02093990008C004
:100330008F5F80939A0004C010929A0020939800D7
:10034000E0918300F09184008081282F30E00090BC
:10035000850002C0359527950A94E2F780919B00AD
:10036000821729F010929D0020939B0008958091A0
:100370009D00853020F48F5F80939D000895209329
:100380009C00089590E0FC01EE0FFF1FEE0FFF1F91
:10039000E80FF91FE458FF4FA281B3818C9190E0E0
:1003A000048002C0959587950A94E2F70895E0913C
:1003B0008600F0918700408121E030E0C901009083
:1003C0008A0002C0880F991F0A94E2F7482B4083E5
:1003D000E0918800F091890040818095842380839A
:1003E000E0918B00F0918C00808100908F0002C022
:1003F000220F331F0A94E2F7822B8083E0918D0055
:10040000F0918E0080812095282320830895FC019F
:10041000EE0FFF1FEE0FFF1FE80FF91FEA57FF4F08
:10042000A281B3812C9181E090E0048002C0880F0A
:10043000991F0A94E2F728272C930895FC01EE0FE8
:10044000FF1FEE0FFF1F6130710579F4E80FF91FF0
:10045000EA57FF4FA281B3818C91048002C0660FDE
:10046000771F0A94E2F7862B11C0E80FF91FEA57AD
:10047000FF4FA281B3812C9181E090E0048002C003
:10048000880F991F0A94E2F7809582238C93089530
:04049000F894FFCF0E
:1004940034003500000000340035000000013A004B
:1004A40000003900003A0000003900013A00390028
:1004B400003A0039000134003500003400350001F1
:00000001FF
